:1009AC00434F44454D41524B5B4C616E6520436F48
:1009BC006E74726F6C20666F722067656E65726103
:1009CC006C20707572706F7365207573652E004D99
:1009DC0061722032312032303136005D004C432DB3
:1009EC003330312D56342E312D31363033323100F7
:100CBA00062C09AC09DB09E7014C00012A00C1280E
:100248007508037FC87E00120515D2977F407E008F
:10025800120515C2977F407E001205151508D3E5D3
:10026800086480948050E3120BCEE54E64AA601BAC
:10027800754EAA12002612089ED211C210C212C2CE
:1002880013C214C215C216C21780031209571208E6
:100298003B120AB0B294202F03020372C22F120C31
:1002A8009D120B0F20380302034DC238120C9DE536
:1002B80036B431E0E535B44307E537B4520280FE81
:1002C800E535B4430AE537B4560512095780C5E544
:1002D80035B4430AE537B444051209FC80B6120A5E
:1002E8007D7F021207467F421207467F311207467A
:1002F800AF23120746AF211207467F031207467540
:100308003373E5216233E5236233AF331207468541
:10031800482085372230100AA2009235C200C23424
:10032800C231120BEF12083B3002051208FE80079B
:100338007FFA7E0012051520030B300105120BAB66
:10034800800312000E303B22C23B7F15120746E4A1
:10035800F5327F451207460532E532D3940340F261
:100368007F03120746E4FF120746B294120B883047
:100378003A38C23A120A7D7F021207467F421207B4
:10038800467F31120746AF23120746AF21120746B0
:100398007F03120746753373E5216233E523623321
:1003A800AF33120746201D02D231B29430341220E6
:1003B8001D0FA21B822A5009D210C21112083BD26B
:1003C80035201A0A752B32D213D214120B3AB29472
:1003D800303515301D1230310FC231C235D211C23D
:1003E80010C21512083BD234B294302C14C22C120D
:1003F8000A7D5006D23CD23A8007303C02D23AC23B
:060408003CB29402029CCC
:10095700E4F509AF09EF3395E0FE74E92FF58274EA
:10096700093EF583E493F50A120C9D7F581207465A
:100977007F591207467F2D120746E50A601DFF12B1
:1009870007460509AF09EF3395E0FE74E92FF582B5
:1009970074093EF583E493F50A80DF7F0D1207465D
:0509A7007F0A02074673
:1009FC00750900750A00750B00120C9D7F581207C3
:100A0C00467F591207467F5F120746AB09AA0AA90F
:100A1C000BAE02AF01C3EF9480EE94005014120C95
:100A2C0047FF1207467401250BF50BE4350AF50A4E
:0C0A3C0080D97F0D1207467F0A02074692
:100BCE00759840758921758DFD758BFDD28ED2ACD1
:100BDE00D29CD28CD2A9D2BCC290C291D293D2AFA7
:010BEE0022E4
:10089E00120C9DD280D281D282D283D284D285D2C2
:1008AE0086D287E4F52BF533F532F524F520F522C3
:1008BE00F5237521BB754F0F7F187834E4F608DFEA
:1008CE00FCE4F550754D06C22BC22FC238C23BC296
:1008DE003AC235C232C231C229C239C233C230C263
:0F08EE002AC22EC234C236C22CC22DC23CC2371F
:0108FD0022D8
:030023000207D100
:0707D100C0E0C0D075D01894
:1007D800309857C298B294859928E528B4021B200E
:1007E8002B1875290074342529F8A628D22B052939
:1007F800D297755001754D06802CE529D394175072
:1008080025302B22D297755001754D067434252951
:10081800F8A628E529B4170C752900C22B754D00D8
:0E082800D22F80020529B2948004C299D237E3
:05083600D0D0D0E0323B
:100B0F00120C9DE5346402701FE54A64037019AF3F
:100B1F00357E0274342EF8E662070EBE16F5EFB579
:0A0B2F004B03D23822D23B22D23B06
:010B39002299
:1006EF007F02120746AF46120746AF47120746AFC3
:1006FF0038120746AF39120746AF3A120746AF3BDB
:10070F00120746AF3C120746AF3D120746AF3E12E7
:10071F000746AF3F120746AF40120746AF411207D9
:10072F0046AF42120746AF43120746AF4412074681
:07073F00AF451207467F03DE
:100746007DE87C03B294D297C2378F99203709EDA2
:0C0756001D70011CED4C70F4C297B294B1
:010762002274
:10040E007FF97E01120515C294D2947FF97E0112F6
:10041E000515C294D2947FF97E01120515C294D2AD
:10042E00947FF97E01120515C294D2947FF97E0154
:10043E00120515C294D2947FF97E01120515C2944D
:10044E00D294D2977FF97E01120515C294D2947F71
:10045E00F97E01120515C294D2947FF97E01120520
:10046E0015C294D2947FF97E01120515C294D294CE
:10047E007FF97E01120515C294D2947FF97E011286
:10048E000515C294D294C2977FF97E01120515C24A
:10049E0094D2947FF97E01120515C294D2947FF9FD
:1004AE007E01120515C294D2947FF97E01120515B4
:1004BE00C294D2947FF97E01120515C294D2947F14
:1004CE00F97E01120515C294D294D2977FF97E015E
:1004DE00120515C294D2947FF97E01120515C294AD
:1004EE00D2947FF97E01120515C294D2947FF97EC3
:1004FE0001120515C294D2947FF97E01120515C220
:07050E0094D2947FF97E01F5
:10051500EF1FAA0670011E4A6011E4FDEDC3942188
:0B05250050EEB294000000000D80F1C9
:0105300022A8
:03000B0002076386
:04076300C0E0C0D062
:10076700758CB8758A1220285CB294D228052AC3E2
:10077700E52A6480948A5004C2288049752A00E5D6
:100787004CD394004005D54C02C234E550D39400B5
:100797004005D55002C297E54DD394004007D54D8B
:1007A70004C22BC22FE54FD394004004154F800598
:1007B700D22C754F0FE52BD394004007D52B04D2CD
:0507C70083D284C2286A
:0507CC00D0D0D0E032A6
:100B8800120C9DAFA0EF65236018AC077F3C7E0078
:100B9800120515AFA0EFB50409D23AF523201B02C0
:020BA800C23455
:010BAA002228
:100A7D00120C9D303009301B04C20A8002D20A309C
:100A8D002A09201B04C20A8002D20AA212301801C0
:100A9D00B34004C20E8002D20E200E03300A02D3E0
:030AAD0022C3223F
:10002600120C9DC287D2971204E5C294D29485A081
:1000360024302703020243D2871204E5C294D294E5
:1000460085A024302704C2978004C287C297120471
:10005600FBC294D294D297C2861204FBC294D29465
:1000660085A024202617D2861204FBC294D294853A
:10007600A024302604C2978004C286C2971204FBCD
:10008600C294D294D297C2851204FBC294D29485AC
:10009600A024202517D2851204FBC294D29485A0F1
:1000A60024302504C2978004C285C2971204FBC27D
:1000B60094D294D297C2841204FBC294D29485A09F
:1000C60024202417D2841204FBC294D29485A0243F
:1000D600302404C2978004C284C2971204FBC294DF
:1000E600D294D297C2831204FBC294D29485A024E0
:1000F600202317D2831204FBC294D29485A0243005
:100106002304C2978004C283C2971204FBC294D20E
:1001160094D297C2821204FBC294D29485A0242062
:100126002217D2821204FBC294D29485A0243022D4
:1001360004C2978004C282C2971204FBC294D2946E
:10014600D297C2811204FBC294D29485A0242021A6
:1001560017D2811204FBC294D29485A024302104C4
:10016600C2978004C281C2971204FBC294D294D271
:1001760097C2801204FBC294D29485A02420201733
:10018600D2801204FBC294D29485A024302004C2EB
:10019600978004C280C297D290D291C2937F0212F6
:1001A60007467F331207461207467F351207461267
:1001B60007467F30120746120746120746120746C1
:1001C6007F331207461207460F12074612074612DA
:1001D6000746120746120746120741E4FF12074672
:1001E600C290C291D29312040EC294D294C29712B4
:1001F600040EC294D294C297D290D291C2937F0237
:100206001207467F591207417F59120746C290C20C
:1002160091D2931204DAC294D2941204DAC294D21E
:1002260094D290D291C2937F021207467F5A120748
:10023600417F5A120746C290C291D29322D287C2F8
:020246009722FD
:100C2C00120C907F021207467F5A1207417F5A120C
:0B0C3C000746C236C290C291D293223C
:100C0F00120C9000007F021207467F591207417F96
:0D0C1F0059120746D236C290C291D29322DC
:10000E00202D11120C9DD22D303606200403020C29
:05001E000F120C2C2262
:10083B00120C9DD281D280301118120B88301D10F2
:10084B00120C2CC286C281754C14D22AC230800283
:10085B00D23530100B120C0FD286C280D230C22A86
:10086B00301204C2828002D282301304C28380020F
:10087B00D283301404C2848002D284301504C28522
:10088B008002D285A215922E120511D281D28075CB
:03089B004F0F22DA
:1008FE00120C9D20102D20112AD290C291D2937FDE
:10090E00047E00120515AE387F0574342FF8E662AA
:10091E00060FBF14F51206EFAF06120746C290C2BD
:10092E0091D293301022D290C291D2937F047E0046
:10093E001205157F021207467F591207417F591281
:08094E000746C290C291D2934A
:01095600227E
:100B3A00120C9D301204C2828002D282301304C287
:100B4A00838002D283301404C2848002D284301596
:070B5A0003C28522D28522AF
:100BAB00120C90AE387F0574342FF8E662060FBF37
:100BBB0014F51206EFAF06120746C22DC290C29172
:020BCB00D293C3
:010BCD002205
:100BEF00A21182105002C211120C9D301002D215A8
:100BFF00301102C215A21172104004A22E921522BA
:0D0C9000C290D291C2937F047E0012051520
:080C9D00C294000000D2942271
:100CA5003004093005037F41227F42223005037F4E
:050CB50043227F4422F0
:100C6000AD071FED6011E4FEEEC394FA50F2D2948A
:070C700000C294000E80F1A8
:010C7700225A
:020AE2008F0B78
:100AE400750C03750DE8D23D120C9DD297C2998501
:100AF4000B9920990FE50D150DAE0C7002150C4ED7
:0A0B040070F0C23DC299C297A23DF5
:010B0E0022C4
:100C7800120C9DAFA0EF20E60D7F05120C60AFA00F
:070C8800EF20E602D322C3B6
:010C8F002242
:100531008F0AC290D291C293120C9DE50A7F0230BC
:10054100E075120AE27F5A120AE27F03120AE27F81
:100551005A120AE27FFA120C607F02120AE27F3815
:10056100120AE27F38120AE27F38120AE27F381259
:100571000AE27F38120AE27F38120AE27F38120A51
:10058100E27F38120AE27F38120AE27F38120AE269
:100591007F38120AE27F38120AE27F38120AE27FBC
:1005A10038120AE27F38120AE27F38120AE27F0328
:1005B100120AE2E4FF800F120AE27F59120AE27F77
:1005C10003120AE27F59120AE2C290C291D2932227
:100663008F0AD290C291C293120C9DE50A75F005D0
:1006730084E5F07F02605C120AE27F35120AE27FB2
:1006830031120AE27F31120AE27F32120AE27F3329
:10069300120AE27F34120AE27F34120AE27F331233
:1006A3000AE27F32120AE27F31120AE27FBB120AA8
:1006B300E27FBC120AE27FCC120AE27FCD120AE289
:1006C3007FDD120AE27FDE120AE27F03120AE27F73
:1006D30001800F120AE27F59120AE27F03120AE233
:0C06E3007F59120AE2C290C291D2932209
:100A4800120C9D7580FEE4FCE58025E0F5807F0AA8
:100A5800120C600CBC10F17FC8120C607FC8120C1D
:100A6800607CFF303D02E4FC8C807F02120C60EC5D
:040A78004403F580BE
:010A7C002257
:020B61008F0AF9
:100B6300120C9DE4F50EF50FC3E50F950A7480F89A
:100B7300650E98500F7FC8120C60050FE50F70E8E3
:040B8300050E80E4F7
:010B8700224B
:100AB000E4F509120C785029120C9DD294C294AF1F
:100AC00009120531AF09120663D23D120A487F0AA6
:100AD000120B61C23D120A487F32120C6005098078
:010AE000DA3B
:010AE10022F2
:030000000205D125
:1005D100E4F5D00205DD787FE4F6D8FD758150029F
:0205E100061EF4
:1005E300020248E493A3F8E493A34003F68001F2E4
:1005F30008DFF48029E493A3F85407240CC8C33319
:10060300C4540F4420C8834004F456800146F6DFE7
:10061300E4800B0102040810204080900CBAE47EB1
:10062300019360BCA3FF543F30E509541FFEE493DC
:10063300A360010ECF54C025E060A840B8E493A3A3
:10064300FAE493A3F8E493A3C8C582C8CAC583CACE
:10065300F0A3C8C582C8CAC583CADFE9DEE780BE86
:010CCA000029
:100C4700BB010689828A83E0225002E722BBFE02AB
:090C5700E32289828A83E49322DE
:00000001FF
