:1009B300434F44454D41524B5B4C616E6520436F41
:1009C3006E74726F6C20666F722067656E657261FC
:1009D3006C20707572706F7365207573652E004A95
:1009E300756E2032372032303132005D004C432D9A
:0F09F3003330312D56342E312D3038303733001C
:100CC000062C09B309E209EE014C00012A00C128F3
:100248007508037FC87E0012051CD2977F407E0088
:1002580012051CC2977F407E0012051C1508D3E5C5
:10026800086480948050E3120BD4E54E64AA601BA6
:10027800754EAA1200261208A5D211C210C212C2C7
:1002880013C214C215C216C217800312095E1208DF
:1002980042120AB6B294202F03020379C22F120C1D
:1002A800A3120B15203803020354C238120CA3E51D
:1002B80036B431E0E535B44307E537B4520280FE81
:1002C800E535B4430AE537B4560512095E80C5E53D
:1002D80035B4430AE537B44405120A0280B6120A57
:1002E800837F0212074D7F4212074D7F3112074D5F
:1002F800AF2312074DAF2112074D7F0312074D752B
:100308003373E5216233E5236233AF3312074D853A
:100318004820853722301011A2009235C200C2341D
:10032800201D04D2318002C231120BF5120842306E
:10033800020512090580077FFA7E0012051C2003BA
:100348000B300105120BB1800312000E303B22C2A4
:100358003B7F1512074DE4F5327F4512074D0532F4
:10036800E532D3940340F27F0312074DE4FF1207EE
:100378004DB294120B8E303A38C23A120A837F0279
:1003880012074D7F4212074D7F3112074DAF2312DE
:10039800074DAF2112074D7F0312074D753373E5E3
:1003A800216233E5236233AF3312074D201D02D299
:1003B80031B294303412201D0FA21B822A5009D268
:1003C80010C211120842D235201A0A752B32D213E4
:1003D800D214120B40B294303515301D1230310F43
:1003E800C231C235D211C210C215120842D234B27B
:1003F80094302C14C22C120A835006D23CD23A8074
:0D04080007303C02D23AC23CB29402029C82
:10095E00E4F509AF09EF3395E0FE74F02FF58274DC
:10096E00093EF583E493F50A120CA37F5812074D46
:10097E007F5912074D7F2D12074DE50A601DFF129C
:10098E00074D0509AF09EF3395E0FE74F02FF582A0
:10099E0074093EF583E493F50A80DF7F0D12074D4F
:0509AE007F0A02074D65
:100A0200750900750A00750B00120CA37F581207B6
:100A12004D7F5912074D7F5F12074DAB09AA0AA9F4
:100A22000BAE02AF01C3EF9480EE94005014120C8F
:100A32004DFF12074D7401250BF50BE4350AF50A3B
:0C0A420080D97F0D12074D7F0A02074D7E
:100BD400759840758921758DFD758BFDD28ED2ACCB
:100BE400D29CD28CD2A9D2BCC290C291D293D2AFA1
:010BF40022DE
:1008A500120CA3D280D281D282D283D284D285D2B5
:1008B50086D287E4F52BF533F532F524F520F522BC
:1008C500F5237521BB754F0F7F187834E4F608DFE3
:1008D500FCE4F550754D06C22BC22FC238C23BC28F
:1008E5003AC235C232C231C229C239C233C230C25C
:0F08F5002AC22EC234C236C22CC22DC23CC23718
:0109040022D0
:030023000207D8F9
:0707D800C0E0C0D075D0188D
:1007DF00309857C298B294859928E528B4021B2007
:1007EF002B1875290074342529F8A628D22B052932
:1007FF00D297755001754D06802CE529D39417506B
:10080F0025302B22D297755001754D06743425294A
:10081F00F8A628E529B4170C752900C22B754D00D1
:0E082F00D22F80020529B2948004C299D237DC
:05083D00D0D0D0E03234
:100B1500120CA3E5346402701FE54A64037019AF33
:100B2500357E0274342EF8E662070EBE16F5EFB573
:0A0B35004B03D23822D23B22D23B00
:010B3F002293
:1006F6007F0212074DAF4612074DAF4712074DAFA7
:100706003812074DAF3912074DAF3A12074DAF3BBE
:1007160012074DAF3C12074DAF3D12074DAF3E12CB
:10072600074DAF3F12074DAF4012074DAF411207BD
:100736004DAF4212074DAF4312074DAF4412074D5E
:07074600AF4512074D7F03D0
:10074D007DE87C03B294D297C2378F99203709ED9B
:0C075D001D70011CED4C70F4C297B294AA
:01076900226D
:100415007FF97E0112051CC294D2947FF97E0112E8
:10042500051CC294D2947FF97E0112051CC294D298
:10043500947FF97E0112051CC294D2947FF97E0146
:1004450012051CC294D2947FF97E0112051CC29438
:10045500D294D2977FF97E0112051CC294D2947F63
:10046500F97E0112051CC294D2947FF97E01120512
:100475001CC294D2947FF97E0112051CC294D294B9
:100485007FF97E0112051CC294D2947FF97E011278
:10049500051CC294D294C2977FF97E0112051CC235
:1004A50094D2947FF97E0112051CC294D2947FF9EF
:1004B5007E0112051CC294D2947FF97E0112051C9F
:1004C500C294D2947FF97E0112051CC294D2947F06
:1004D500F97E0112051CC294D294D2977FF97E0150
:1004E50012051CC294D2947FF97E0112051CC29498
:1004F500D2947FF97E0112051CC294D2947FF97EB5
:100505000112051CC294D2947FF97E0112051CC20A
:0705150094D2947FF97E01EE
:10051C00EF1FAA0670011E4A6011E4FDEDC3942181
:0B052C0050EEB294000000000D80F1C2
:0105370022A1
:03000B0002076A7F
:04076A00C0E0C0D05B
:10076E00758CB8758A1220285CB294D228052AC3DB
:10077E00E52A6480948A5004C2288049752A00E5CF
:10078E004CD394004005D54C02C234E550D39400AE
:10079E004005D55002C297E54DD394004007D54D84
:1007AE0004C22BC22FE54FD394004004154F800591
:1007BE00D22C754F0FE52BD394004007D52B04D2C6
:0507CE0083D284C22863
:0507D300D0D0D0E0329F
:100B8E00120CA3AFA0EF65236018AC077F3C7E006C
:100B9E0012051CAFA0EFB50409D23AF523201B02B3
:020BAE00C2344F
:010BB0002222
:100A8300120CA3303009301B04C20A8002D20A3090
:100A93002A09201B04C20A8002D20AA212301801BA
:100AA300B34004C20E8002D20E200E03300A02D3DA
:030AB30022C32239
:10002600120CA3C287D2971204ECC294D29485A074
:1000360024302703020243D2871204ECC294D294DE
:1000460085A024302704C2978004C287C297120570
:1000560002C294D294D297C286120502C294D29456
:1000660085A024202617D286120502C294D2948532
:10007600A024302604C2978004C286C297120502C5
:10008600C294D294D297C285120502C294D29485A4
:10009600A024202517D285120502C294D29485A0E9
:1000A60024302504C2978004C285C297120502C275
:1000B60094D294D297C284120502C294D29485A097
:1000C60024202417D284120502C294D29485A02437
:1000D600302404C2978004C284C297120502C294D7
:1000E600D294D297C283120502C294D29485A024D8
:1000F600202317D283120502C294D29485A02430FD
:100106002304C2978004C283C297120502C294D206
:1001160094D297C282120502C294D29485A024205A
:100126002217D282120502C294D29485A0243022CC
:1001360004C2978004C282C297120502C294D29466
:10014600D297C281120502C294D29485A02420219E
:1001560017D281120502C294D29485A024302104BC
:10016600C2978004C281C297120502C294D294D269
:1001760097C280120502C294D29485A0242020172B
:10018600D280120502C294D29485A024302004C2E3
:10019600978004C280C297D290D291C2937F0212F6
:1001A600074D7F3312074D12074D7F3512074D124B
:1001B600074D7F3012074D12074D12074D12074D9E
:1001C6007F3312074D12074D0F12074D12074D12BE
:1001D600074D12074D12074D120748E4FF12074D4F
:1001E600C290C291D293120415C294D294C29712AD
:1001F6000415C294D294C297D290D291C2937F0230
:1002060012074D7F591207487F5912074DC290C2F7
:1002160091D2931204E1C294D2941204E1C294D210
:1002260094D290D291C2937F0212074D7F5A120741
:10023600487F5A12074DC290C291D29322D287C2EA
:020246009722FD
:100C3200120C967F0212074D7F5A1207487F5A12F2
:0B0C4200074DC236C290C291D293222F
:100C1500120C9600007F0212074D7F591207487F7C
:0D0C25005912074DD236C290C291D29322CF
:10000E00202D11120CA3D22D303606200403020C23
:05001E0015120C322256
:10084200120CA3D281D280301118120B8E301D10DF
:10085200120C32C286C281754C14D22AC230800276
:10086200D23530100B120C15D286C280D230C22A79
:10087200301204C2828002D282301304C283800208
:10088200D283301404C2848002D284301504C2851B
:100892008002D285A215922E120518D281D28075BD
:0308A2004F0F22D3
:10090500120CA320102D20112AD290C291D2937FD0
:10091500047E0012051CAE387F0574342FF8E6629C
:10092500060FBF14F51206F6AF0612074DC290C2A8
:1009350091D293301022D290C291D2937F047E003F
:1009450012051C7F0212074D7F591207487F591265
:08095500074DC290C291D2933C
:01095D002277
:100B4000120CA3301204C2828002D282301304C27B
:100B5000838002D283301404C2848002D284301590
:070B600003C28522D28522A9
:100BB100120C96AE387F0574342FF8E662060FBF2B
:100BC10014F51206F6AF0612074DC22DC290C2915E
:020BD100D293BD
:010BD30022FF
:100BF500A21182105002C211120CA3301002D2159C
:100C0500301102C215A21172104004A22E921522B3
:0D0C9600C290D291C2937F047E0012051C13
:080CA300C294000000D294226B
:100CAB003004093005037F41227F42223005037F48
:050CBB0043227F4422EA
:100C6600AD071FED6011E4FEEEC394FA50F2D29484
:070C760000C294000E80F1A2
:010C7D002254
:020AE8008F0B72
:100AEA00750C03750DE8D23D120CA3D297C29985F5
:100AFA000B9920990FE50D150DAE0C7002150C4ED1
:0A0B0A0070F0C23DC299C297A23DEF
:010B140022BE
:100C7E00120CA3AFA0EF20E60D7F05120C66AFA0FD
:070C8E00EF20E602D322C3B0
:010C9500223C
:100538008F0AC290D291C293120CA3E50A7F0230AF
:10054800E075120AE87F5A120AE87F03120AE87F68
:100558005A120AE87FFA120C667F02120AE87F38FC
:10056800120AE87F38120AE87F38120AE87F381240
:100578000AE87F38120AE87F38120AE87F38120A38
:10058800E87F38120AE87F38120AE87F38120AE84A
:100598007F38120AE87F38120AE87F38120AE87FA3
:1005A80038120AE87F38120AE87F38120AE87F030F
:1005B800120AE8E4FF800F120AE87F59120AE87F5E
:1005C80003120AE87F59120AE8C290C291D2932214
:10066A008F0AD290C291C293120CA3E50A75F005C3
:10067A0084E5F07F02605C120AE87F35120AE87F9F
:10068A0031120AE87F31120AE87F32120AE87F3310
:10069A00120AE87F34120AE87F34120AE87F33121A
:1006AA000AE87F32120AE87F31120AE87FBB120A8F
:1006BA00E87FBC120AE87FCC120AE87FCD120AE86A
:1006CA007FDD120AE87FDE120AE87F03120AE87F5A
:1006DA0001800F120AE87F59120AE87F03120AE81A
:0C06EA007F59120AE8C290C291D29322FC
:100A4E00120CA37580FEE4FCE58025E0F5807F0A9C
:100A5E00120C660CBC10F17FC8120C667FC8120C0B
:100A6E00667CFF303D02E4FC8C807F02120C66EC4B
:040A7E004403F580B8
:010A82002251
:020B67008F0AF3
:100B6900120CA3E4F50EF50FC3E50F950A7480F88E
:100B7900650E98500F7FC8120C66050FE50F70E8D7
:040B8900050E80E4F1
:010B8D002245
:100AB600E4F509120C7E5029120CA3D294C294AF0D
:100AC60009120538AF0912066AD23D120A4E7F0A8C
:100AD600120B67C23D120A4E7F32120C6605098060
:010AE600DA35
:010AE70022EC
:030000000205D81E
:1005D800E4F5D00205E4787FE4F6D8FD7581500291
:0205E8000625E6
:1005EA00020248E493A3F8E493A34003F68001F2DD
:1005FA0008DFF48029E493A3F85407240CC8C33312
:10060A00C4540F4420C8834004F456800146F6DFE0
:10061A00E4800B0102040810204080900CC0E47EA4
:10062A00019360BCA3FF543F30E509541FFEE493D5
:10063A00A360010ECF54C025E060A840B8E493A39C
:10064A00FAE493A3F8E493A3C8C582C8CAC583CAC7
:10065A00F0A3C8C582C8CAC583CADFE9DEE780BE7F
:010CD0000023
:100C4D00BB010689828A83E0225002E722BBFE02A5
:090C5D00E32289828A83E49322D8
:00000001FF
