:03000000021C5887
:0C1C5800787FE4F6D8FD758185021C9FA2
:1023E50053746172742075702E2E2E2E0A0042656C
:1023F50065702E2E2E2E0A00537065616B50434D6D
:102405002056312E312E3020666F72204C433330EA
:03241500312E0065
:101A6400E4F5A87580FF7590FF75A0FF75B0FFF5CC
:101A7400B1F5B2F595F596F591F592F593F594D205
:101A8400AFD290D292C2B312265412263E12266AC4
:101A94001225C27BFF7A2379E51225691223327B52
:101AA400FF7A2379F31225691223327BFF7A237993
:101AB400F31225691223327BFF7A2379F312256905
:101AC400C29012197FD2907F0E1225021226A8D23C
:101AD400921225A612267F308D36C28D053BE53B3A
:101AE4007002053A051DB4FF0CE53AB4FF07E4F5AE
:101AF4003AF53BC218E51DB4060BE4F51DF51FF5D8
:101B04001EC202C201C28DC28CE4F58AF58CD28C4D
:101B1400300008C20012272D121736121DF780B7A5
:0D21310001320001310001330002340000D2
:10000300E53264076006E53204FF8002E4FFEF6532
:0B0013003160047E0180027E00AF0619
:01001E0022BF
:1026100074762532F8A607E5326407600405328037
:0726200003E4F532D2AE2203
:10254800E5316532601574762531F8E6F533E53105
:1025580064076003053122E4F53122753380C2AE89
:012568002250
:09233200E4FDFC120003EF700B46
:0B233B007509241509E50960F180F820
:1023460074362DF58274003CF583E493FF12261053
:102356000DBD00010CBC05D7BD3AD4E4FCFD0DBD96
:0923660000010CED64C84C70F597
:01236F00224B
:1025C200E4F5D875D903F5E975F9FF75EA8075FA6E
:0B25D2008075DA42D2AED2DED2AF221A
:030033000222F3B3
:1022F300C0E0C0D075D000C0000535E535700205DB
:1023030034B43307E534B40302C292E535B4A80DFF
:10231300E534B40308D29275340075350075F9FBC2
:0F2323001225488533FAC2DFD000D0D0D0E03287
:100036007F807F7F7F807F7F7F7E7F7F7F7F807FC8
:10004600807F807F807F807F807F8081869594906F
:100056008C7A50565A5F6476A19C99959080535C31
:100066006063697BA59D9C989383575C62666B7CF5
:10007600A7A09E999483585F63666D7CA6A09E99FF
:1000860094845B6164676D7DA7A19E9A94845B618D
:10009600646B8193BBADA87C635F34444B7B9599BD
:1000A600C4B5AD7F686236484D7C969BC8B6AF80B6
:1000B600686438484F7F989DC8B8B0826A653B48E7
:1000C600507D999CCAB8B08168633A4A507E999E21
:1000D600C7B8B1806862394951819A9CC8B8B18164
:1000E600676238495082A3A2CCBCB27759562D3FDD
:1000F6004886A4A6D0BDB4795B592E424A86A5A7E8
:10010600D0BEB7765A5A30424B87A4A6CFBDB57833
:100116005A5830424C87A5A6D1BDB3765A573041BE
:100126004F92ABADD4BFAB674F4D273A4D93AFB1AE
:10013600D9C2AD6951522D405297AEA9D4BFA7641A
:100146004F542C42569BAFACD2BEA76650552D429B
:10015600589CAEADD3BDA66550542F41589BB0AD4B
:10016600D3BCA66550532D41599CAFACD1BCA565F7
:1001760050532E435E9FB2B0D3BC9E5A4A4E2A3F7E
:1001860062ABBFB9DBC49C4A383B1C345CAEC2BD13
:10019600DBC89E4D3C401F3861B2C4BFDFC89D4CD2
:1001A6003E46243C66B2C1B6D8C095483E45273E79
:1001B60068B4C2B8D8C1964A3E46273E6BB6C2BAA4
:1001C600DAC1944B3E47293F6DB6C1B9DAC2924BAC
:1001D6003F4626406EB5C2B9DAC0904B3E45264230
:1001E6006FB3C1B8DAC09154454C2D436CA5B5AD7B
:1001F600CEB68D58484F2B4771A6B5ACCFB78C58A5
:10020600484F2F4773A5B4B0CFB78A5A494E2F48E7
:1002160075A5B6AECEB587594A4F2E4977A4B5AF68
:10022600CEB386584A4E2E4B79A4B5B0CEB283597A
:100236004B4F304C7AA3B5AFCEB083594B4F2F4EB0
:100246007BA1B2ADCDAE80594C50314E7CA1B0AD44
:10025600CDAF805B4C5031507DA1B2ACCDAE7E5A55
:100266004C4F32507EA2B2ADCDAB7E5C4C4F33527A
:100276007FA1B0ACCEAA7D5A4D50315580A1B0AD0C
:10028600CBA77D5B4D51315680A3B0ACCBA77E5C2E
:100296004F52325880A2B1ACCBA67C5C4C52325A3B
:1002A60084A2AFADCBA37B5C4E51315C82A1AEACD8
:1002B600CAA27D5A4E52335C83A3AFACCBA17C5D00
:1002C6004E52315E81A3AEABC89E7A5B4F5232600E
:1002D60081A2AEABCA9C7D5B4F53326281A0AEABAE
:1002E600C99D7C5C4F52336480A1B0ABCC9B7E5CD5
:1002F6004F52346581A2B0A9C8977E5B4F523466CF
:1003060081A1AEAACA967D5A4F54356780A2AFAB7B
:10031600CB947F5B505435697FA3AFAAC9947F5BAA
:100326004E54356781A3ADAAC9907E5E4E56346A97
:100336007FA2AEA9C7917F5B4E55376C7EA0AEA754
:10034600C791805D4E54356E7FA3AFA8C5917F5D82
:100356004E55386F80A3B0A8C48D815A4E55386F5C
:100366007DA3B1A8C48C835D4E563A727EA3B0A815
:10037600C38C815A4E5539737DA3B2A7C28C825D58
:100386004D573B727BA1B2A6C18C825D4F573D751E
:100396007BA0B1A5C28B825E4D563F737DA5B7ADDE
:1003A600AE7C724D4053619396BCC7B09D6C66455A
:1003B6003952659698BBC5AE9968654337526795BD
:1003C60098BBC6AD996866443852679598B9C7AC6C
:1003D600986765433652699599B9C6AB9568664381
:1003E60036546B9BA2B2B09E7F595759616F8AAE45
:1003F600ACA69D8F7252535963718DACABA59C8C84
:100406006F52535A62718FACABA49C8D6F52535A84
:10041600627190ACABA49C8D6D53535B627191ACD1
:10042600ABA39C8D6C53535B637193ACABA29C8C5A
:100436006A53545D647594A5A79D98886C5F5D6644
:100446006A79939FA29996876C605E676B79949F91
:10045600A09794856A6261696C7B959E9F97958546
:100466006A6261696C7A969D9F9694856962606AF4
:100476006D7D95979B9090816F706A737381919053
:10048600958C8D806F706B7474809190918A8A7D43
:100496006E7171797884938F8F87887B6D7071798F
:1004A6007984938F8E87877B6D70727A7984939027
:1004B6008E86867B6D707279798592908D86867B25
:1004C6006E70737A798592908E8683786C6D727B66
:1004D60081868E8F8B83807E7372767D80828E90EE
:1004E6008B83817E7270757C7F828D908B83817EFB
:1004F600727075787B7E8A8D8A8A86837773757526
:10050600797B878D8A8A878477727575787B878CE5
:100516008A8A868479727575787A868C8A8A8784BF
:1005260079727575787A858C8A8A878479727575F9
:10053600787A848D8A8A87857A727575797D8386BD
:10054600858483817F7E7F7E7F80818081807F7F9F
:100556007E7F7E7F7F807F807F807F7E7F7E7F7FA6
:0A0566007F807F807F807F7E7F7E94
:07272600AE071FEE70FA225E
:1026BC00E4D293C2B47F0512269D122710D2B4C265
:0126CC00937A
:0126CD0022EA
:0426CE00D293C2B42D
:0E26D200D293C2B47F0612269DD2B4C29322C8
:0E270200D293C2B47F0412269DD2B4C2932299
:1024D500D293C2B47FAB12269DE4FF12269DE4FF82
:1024E50012269DE4FF12269D122710AD07D2B47F58
:0824F50004122726C293AF0573
:0124FD0022BC
:02244B008F08F8
:10244D00D293C2B47F9012269DE4FF12269DE4FF25
:10245D0012269DAF0812269D122710EF750A00F562
:0F246D0009122710EF420AD2B4C293AE09AF0A88
:01247C00223D
:101F4500E4F50BF50AF509F508D293C2B47F9F12A3
:101F5500269D1227107E00EF7810C333CE33CED8DE
:101F6500F9FFEE3395E08F0B8E0AF509F508122778
:101F750010EFFE3395E0FDFCE50BF50BE50A4EF59C
:101F85000AE5094DF509E5084CF508122710E50B9A
:101F95004FF50BE50AF50AE509F509E508F508D257
:0A1FA500B4C293AF0BAE0AAD09FC05
:011FAF00220F
:082188008F148E138D128C11CF
:10219000E4F516D293C2B47F0312269DE514FFE541
:1021A00013FEE512FDE47810122699E514FFE513FD
:1021B000122694E514FFE412269DE4F516E516C3F5
:1021C0009515501412271074002516F582E434007A
:0C21D000F583EFF0051680E5D2B4C29351
:0121DC0022E0
:102418008F108E0F8D0E8C0DD293C2B47F031226AF
:102428009DE510FFE50FFEE50EFDE4FC78101212A5
:102438004212269DE510FFE50F122694E510FFE4F1
:0324480002269DCC
:05273400D2B4C29322A3
:0820D6008F198E188D178C166E
:1020DE001226CEC2B47F0212269DE519FFE518FE28
:1020EE00E517FDE4FC781012124212269DE519FF49
:1020FE00E518122694E519FFE412269DE4F51CE579
:10210E001CC3951A50167400251CF582E43400F594
:10211E0083E0F51BFF12269D051C80E3D2B4C2930B
:03212E0002270283
:102627001226CEC2B4120026C2B47FC712269DD28C
:07263700B4120026C2932239
:1023AC008F0C8E0B8D0A8C091226CEC2B47FD812DC
:1023BC00269DE50CFFE50BFEE50AFDE4FC7810120A
:1023CC00124212269DE50CFFE50B122694AF0CE58C
:0923DC000C12269DD2B4C293221A
:090026001226BCEF640360F8220D
:082370008F0C8E0B8D0A8C0905
:10237800E4D293C2B47FE812269DE50CFFE50BFE7C
:10238800E50AFDE4FC781012124212269DE50CFFC6
:10239800E50B122694E50CFFE412269D122710D2B5
:0323A800B4C29329
:0123AB00220F
:10266A00D2B4D297C293538E7FC2ADE4F5867584F5
:05267A00C07585D022AF
:09269400FEE4FD7808FC1212427C
:0B269D008F86E58430E7FB7584C022C7
:0E271000E4F586E58430E7FB7584C0AF8622D1
:101BC200417373657274206661696C65643A204979
:101BD200443D3D494478200A004173736572742084
:101BE2006661696C65643A2073756D3D3D3078308D
:101BF20061200A00566F78205265616420496E6642
:101C02006F3A2000564F582049443D256420004138
:101C12006464723D255820004C656E3D2578200095
:101C2200200A00417373657274206661696C656491
:101C32003A20566F784C6973745075745074723CC4
:101C420073697A656F6628566F78506C61794C6952
:061C5200737429200A0052
:10213E000440000000000436000000001E440000B1
:10214E000000000000000000000000000000000081
:10215E00000000000000000000000000013F000130
:02216E003E0031
:021896008F0BB6
:10189800E50BD3942A400302197EE50B75F008A4E2
:1018A800FFAEF0E4FCFD122418122710E50B6F6060
:1018B8000B7BFF7A1B79C212256980FEE47840F61B
:1018C8001227107841A6071227107842A607122778
:1018D800107843A607E4F5361227108F3712271021
:1018E8008F381227108F39122710EF640A600B7B8C
:1018F800FF7A1B79DB12256980FE1227347BFF7A79
:101908001B79F61225697BFF7A1C7906AF0BE4FC7C
:10191800FDFE120C827BFF7A1C7911784012125559
:10192800120C827BFF7A1C791AAF39AE38AD37AC0E
:1019380036120C827BFF7A1C792212256974FFFF0C
:10194800FEFD7C007840121261C3121231601574DA
:10195800FFFFFEFD7C00AB39AA38A937A836C312B1
:1019680012317012784012126E00000000E4F5394E
:06197800F538F537F536E5
:01197E002246
:0424FE00AF09050914
:102502008F0B783FE6C3941E400B7BFF7A1C792524
:1025120012256980FE783FE62444F8A60B783F0630
:012522002296
:10258A00783EE6FE0866600B74442EF8E6FF783E55
:0B259A000680087FFFE4783FF618F68B
:0125A5002213
:1026F200783EE6700808E670047F0180027F0022BF
:1025DD00E4FFFEFDFCAB39AA38A937A836C31212A9
:0A25ED003170047F0180027F00229C
:101DF700E4FFFEFDFCAB39AA38A937A836C3121297
:101E070031701012273412258A8F0AE50AF460030D
:101E17001218967840121255EC4D4E4F60117840CB
:101E2700121255122418784012126E00000000AFEB
:101E370039AE38AD37AC36EC4D4E4F602612000345
:101E4700EF60201227108F0A122610E53924FFF5BC
:101E570039E53834FFF538E53734FFF537E53634FB
:031E6700FFF5364E
:011E6A002255
:07272D00E4783FF618F622E4
:1026A8001226F2EF60061225DDEF7005121DF78085
:0426B800EF022734D2
:1022B300E4F509E509D3942A50031224FEE509D372
:1022C300942A50031224FEE509D3942A50031224BE
:1022D300FEE509D3942A50031224FE1226F2EF706E
:1022E30005121DF780F5E509D3942A40C60226A8F6
:100EFB000000102120423063408450A560C670E78B
:100F0B0081089129A14AB16BC18CD1ADE1CEF1EF32
:100F1B00123102103273225252B5429472F762D6DA
:100F2B0093398318B37BA35AD3BDC39CF3FFE3DE82
:100F3B00246234430420140164E674C744A454852A
:100F4B00A56AB54B85289509E5EEF5CFC5ACD58DD2
:100F5B00365326721611063076D766F6569546B47A
:100F6B00B75BA77A97198738F7DFE7FED79DC7BC22
:100F7B0048C458E5688678A70840186128023823CA
:100F8B00C9CCD9EDE98EF9AF89489969A90AB92B72
:100F9B005AF54AD47AB76A961A710A503A332A121A
:100FAB00DBFDCBDCFBBFEB9E9B798B58BB3BAB1AC2
:100FBB006CA67C874CE45CC52C223C030C601C416A
:100FCB00EDAEFD8FCDECDDCDAD2ABD0B8D689D4912
:100FDB007E976EB65ED54EF43E132E321E510E70BA
:100FEB00FF9FEFBEDFDDCFFCBF1BAF3A9F598F7862
:100FFB00918881A9B1CAA1EBD10CC12DF14EE16F42
:10100B00108000A130C220E3500440257046606779
:10101B0083B99398A3FBB3DAC33DD31CE37FF35E91
:10102B0002B1129022F332D24235521462777256C9
:10103B00B5EAA5CB95A88589F56EE54FD52CC50DE1
:10104B0034E224C314A00481746664475424440519
:10105B00A7DBB7FA879997B8E75FF77EC71DD73C31
:10106B0026D336F2069116B0665776764615563469
:10107B00D94CC96DF90EE92F99C889E9B98AA9AB81
:10108B00584448657806682718C008E1388228A3B9
:10109B00CB7DDB5CEB3FFB1E8BF99BD8ABBBBB9AD1
:1010AB004A755A546A377A160AF11AD02AB33A9209
:1010BB00FD2EED0FDD6CCD4DBDAAAD8B9DE88DC921
:1010CB007C266C075C644C453CA22C831CE00CC159
:1010DB00EF1FFF3ECF5DDF7CAF9BBFBA8FD99FF871
:1010EB006E177E364E555E742E933EB20ED11EF0A9
:1025F7007FFF7EFFAD071FED600CAD061EED60F49B
:082607003098F77F01227F00EB
:01260F0022A8
:102079001225F7EF60037F01221225F7EF60037F36
:1020890001221225F7EF60037F01221225F7EF6085
:10209900037F01221225F7EF60037F01221225F742
:1020A900EF60037F01221225F7EF60037F012212FF
:1020B90025F7EF60037F01221225F7EF60037F0107
:0D20C900221225F7EF60037F01227F002225
:03271E001220790D
:04272100AF99C29812
:012725002291
:0826E0007F181226E81226E81B
:0A26E800C2998F993099FDC2992222
:1012AD00E4F50E751101F50C050CE50E7007E50C56
:1012BD00D394145056E50E6007E50CD3940A504BA9
:1012CD00E50E70057F431226E8122079EF60D912E2
:1012DD0027218F0DE50D24FE601124FE601224ECF4
:1012ED006016241770C2750E808026750EFA802147
:1012FD007F061226E87F002212271E8F0DE50D6452
:10130D001870A57F061226E87F02221226E07F03C1
:10131D0022122079EF70037F01221227218F1212E2
:10132D002079EF70037F01221227218F0DC374FFE7
:10133D00950DB5120DE5126511602FE511146512AD
:10134D006028E4F50FF510E50E2402FFE433FEC32B
:10135D00E5109FE50F9E400302142812271E8F0DE6
:10136D000510E51070E1050F80DDE4F513F514F5BA
:10137D000FF510C3E510950EE50F9400504C12209B
:10138D0079EF70037F01221227218F0DE513FFEFF7
:10139D00650D25E0FFE433FE74FB2FF582740E3EE0
:1013AD00F583E514FEE4936EF513740193F514AB18
:1013BD0024AA25A926851082850F83E50D121141DA
:1013CD000510E51070AD050F80A9122079EF70039F
:1013DD007F01221227218F0DE513650D7001E47039
:1013ED003A122079EF70037F01221227218F0DE52C
:1013FD0014650D7001E47023AF0E1224A98F0DE555
:10140D000D60061226E07F0922E512B511020511C5
:10141D007F061226E8E4F50C0212B5050CE50CD397
:10142D00940A40061226E07F0422E4F50FF510051C
:10143D0010E5107002050FF4450F70F37F1512269D
:04144D00E80212B5EA
:1015D300750E01E4F50FF510F50C122079EF60217B
:1015E3001227218F0DE50D24E8600624D5602180A4
:1015F300101220791227218F0DE50DB4180302175D
:1016030001050CE50CC3941440D01226E07F03229D
:1016130012222B8F0DE50D7003021714E50DC394F1
:10162300805016AB24AA25A926AF0D050D8F827510
:101633008300741A12114180E3E4F50CE50CC394A2
:1016430005400302170E7F011226E8AF0E1226E8AB
:10165300C374FF950EFF1226E8E4F50FF510F50DA0
:10166300AB24AA25A926850D82758300121114FFC8
:101673001226E8AB24AA25A926850D8275830012BC
:101683001114FDE50FFFEF6D25E0FFE433FE74FB5E
:101693002FF582740E3EF583E510FEE4936EF50F8D
:1016A300740193F510050DE50DC3948040B2E50F69
:1016B300FF1226E8AF101226E8E4F50DF50FF5103A
:1016C300E510450F7011122079750F008F10050D6D
:1016D300E50DC3940340E9E510450F602912272166
:1016E3008F0DE50D24E860092412701A050E021609
:1016F300131220791227218F0DE50DB418087F06E8
:101703001226E87F0222050C02163F1226E07F0410
:1017130022E4F50C7F041226E81220791227218F88
:101723000DE50D64066009050CE50CC3940A40E45D
:021733007F0035
:011735002291
:10057000466F7220656E746572204154452C20547C
:100580007970652027632720616E642027656E746B
:100590006572272E0A00446F776E6C6F6164206469
:1005A00061746120746F20666C6173682C205479CB
:1005B00070652027742720616E642027656E74653E
:1005C00072272E0A0028506C6561736520696E7071
:1005D000757420636F6D6D616E6420696E20357374
:1005E000292E0A00476F6F6420427965210D0A00A9
:1005F0000A002A2A2A2A2A2A2A2A2A2A2A2A2A2AA5
:100600002A2A2A2A2A2A2A2A2A2A2A2A2A2A2A2A4A
:100610002A2A2A2A2A2A2A2A2A0A002A20206C2060
:100620002D2D6C6973742053504920666C6173687A
:1006300020737461747573202020202020202020D6
:10064000202A0A002A202062202D2D657261736500
:100650002053504920666C61736820626C6F636B35
:10066000732020202020202020202A0A002A202059
:1006700063202D2D65726173652053504920666C8F
:10068000617368206368697020202020202020206A
:100690002020202A0A002A202072202D2D72656138
:1006A0006475702066726F6D2053504920666C61CE
:1006B0007368206D656D6F72792020202A0A002AE8
:1006C000202077202D2D646F776E6C6F616420641D
:1006D00061746120746F2053504920666C617368A7
:1006E00020202020202A0A002A202068202D2D7377
:1006F000686F7720766F782E696E6620696E20535A
:10070000504920666C6173682020202020202A0A2E
:10071000002A202070202D2D706C617920736F7558
:100720006E64202020202020202020202020202037
:10073000202020202020202A0A002A202076202D78
:100740002D76657273696F6E20696E666F2020204A
:100750002020202020202020202020202020202099
:100760002A0A002A202071202D2D717569742020FD
:100770002020202020202020202020202020202079
:100780002020202020202020202A0A0052445352DA
:100790003A2025780A004944313A202025780A0079
:1007A0004944322D303A25782020004944322D31F9
:1007B0003A25780A004944333A202025780A004532
:1007C0007261736520466C61736820426C6F636B65
:1007D000202E2E2E2E2E2E0A0045726173652E2E8F
:1007E0002E0020626C6F636B3D25640020464C41F7
:1007F00053485F616464723D25780A0052444C524C
:100800003A2025780A00457261736520466C617351
:100810006820426C6F636B202E2E2E2E2E2E4F4B97
:10082000210A00457261736520466C61736820433C
:10083000686970202E2E2E2E2E2E0A0052445352FE
:10084000203A2025780A00457261736520466C6164
:1008500073682043686970202E2E2E2E2E2E4F4B4B
:10086000210A000A506C656173652073656C6563CD
:10087000742066696C6520616E6420776169742EEE
:100880002E2E0A00436C69636B2073656E642062D0
:100890007574746F6E20746F20777269746520664A
:1008A0006C6173682E0A00466C6173682057726928
:1008B000746520446F776E202E2E2E4F6B0A0046F3
:1008C0006C61736820577269746520446F776E207D
:1008D0002E2E2E4572726F720A004572726F722050
:1008E000436F6465203D2025640A00466C6173688F
:1008F0002072656164207570202E2E2E0A00466CD1
:100900006173682072656164207570202E2E2E4FF1
:100910006B0A00466C6173682072656164207570B3
:10092000202E2E2E4572726F720A002A2020496EE8
:1009300070757420566F782D494428666F726D204B
:100940003020746F204D41585F4944292C202020CD
:1009500020202A0A002A20204F7220696E707574A8
:10096000204120666F7220616C6C206F6620746875
:10097000656D2C2020202020202020202A0A002AFB
:1009800020204F7220696E707574204220746F2091
:100990006261636B776172642C202020202020200C
:1009A0002020202020202A0A002A2020416E6420B6
:1009B0007468656E2070726573732027456E746568
:1009C00072272E20202020202020202020202020C0
:1009D0002A0A002E00496E707574206E756D62656E
:1009E000722069733A25642E0A00496E76616C693B
:1009F000642049442E0A00506C617920646F6E6552
:030A00002E0A00BB
:0821700006270000000000003A
:10263E00759850438920758DFA758BFA438E40C27A
:06264E00ABD28EC2AC22EB
:0221DD008F0869
:1021DF00C298AF081508EF603FE4F50CF50BF50A50
:1021EF00F5097FBD7E5F7D097C00AB0CAA0BA90AA8
:1021FF00A809C312123150DA309806859927C29870
:10220F0022E50C2401F50CE4350BF50BE4350AF54A
:0B221F000AE43509F50980CAE4F52740
:01222A002291
:021FB0008F0997
:101FB200E4F50EC298AF091509EF6056E4F50DF588
:101FC2000CF50BF50A7FBD7E5F7D097C00AB0DAA87
:101FD2000CA90BA80AC312123150DA30981D7427CB
:101FE200250EF8A699C2987427250EF8E6640D60AE
:101FF20005E50EB40503E4F622050EE50D2401F510
:102002000DE4350CF50CE4350BF50BE4350AF50A55
:0520120080B3E4F52796
:0120170022A6
:0D247D007BFF7A0579F012248A7A0579F246
:10248A008014EF4E6018C2998F993099FDC29974E1
:0E249A000129F9E43AFA1210FBFF7E0080E4FB
:0124A8002211
:060A0300E4FCFDFE7BFF98
:0E0A09008F128E118D108C0F8B0C8A0D890EA2
:100A1700804DE5137003020C81B42529AB0CAA0D98
:100A2700A90E900001121114F51364646038E513E0
:100A370064787003020B17E51364587003020B17F1
:100A47001210FBF513C2998513993099FDC2997459
:100A570001250EF50EE4350DF50DAB0CFAA90E12B6
:100A670010FBF51380AC75174075164275150F7599
:100A77001400E4F518FFFEFDFCAB12AA11A910A89B
:100A87000FC3121231700DC2997599303099FDC29A
:100A970099020C73AF17AE16AD15AC14EC4D4E4F53
:100AA7007003020C73AB17AA16A915A814AF12AEE0
:100AB70011AD10AC0F12119F8F13E5187004E513D9
:100AC7006033751801C299E5132430F5993099FD03
:100AD700C299AF12AE11AD10AC0FAB17AA16A9157C
:100AE700A81412119FAC00AD01AE02AF038F128E96
:100AF700118D108C0FAF17AE16AD15AC14E47B0A31
:100B0700FAF9F812119F8F178E168D158C148084A1
:100B1700AF12AE11AD10AC0F781C121242EF540F8A
:100B2700FF8F13C299E513C3940AE51350052430C8
:100B3700FF80032437FF8F993099FDC299AF12AE1A
:100B470011AD10AC0F7818121242EF540FFF8F132C
:100B5700C299E513C3940AE51350052430FF8003B7
:100B67002437FF8F993099FDC299AF12AE11AD109E
:100B7700AC0F7814121242EF540FFF8F13C299E58E
:100B870013C3940AE51350052430FF80032437FF6D
:100B97008F993099FDC299AF12AE11AD10AC0F7895
:100BA70010121242EF540FFF8F13C299E513C3942B
:100BB7000AE51350052430FF80032437FF8F99304F
:100BC70099FDC299AF12AE11AD10AC0F780C12128D
:100BD70042EF540FFF8F13C299E513C3940AE5132D
:100BE70050052430FF80032437FF8F993099FDC2C9
:100BF70099AF12AE11AD10AC0F7808121242EF5434
:100C07000FFF8F13C299E513C3940AE51350052408
:100C170030FF80032437FF8F993099FDC299AF12B7
:100C2700AE11AD10AC0F7804121242EF540FFF8FC4
:100C370013C299E513C3940AE51350052430FF80C6
:100C4700032437FF8F993099FDC299E512540FFF9E
:100C57008F13C299E513C3940AE51350052430FF97
:100C670080032437FF8F993099FDC2997401250EAF
:0A0C7700F50EE4350DF50D020A56E6
:010C81002250
:10197F007BFF7A05797012248A7A05799612248A68
:10198F007A0579C512248A7F02121FB0E527646396
:10199F006009E52764746003021A5AE527B47403DB
:1019AF00021E6B12247D7A06791B12248A7A06791D
:1019BF004412248A7A06796D12248A7A067996124D
:1019CF00248A7A0679BF12248A7A0679E812248A41
:1019DF007A07791112248A7A07793A12248A7A07B8
:1019EF0079631224837F011221DDE5271212871AF2
:1019FF0023621A29631A3B681A1D6C1A41701A5A0E
:101A0F00711A2F721A47761A3577000019F41222BD
:101A1F00710219B2121D6F0219B21225230219B2E7
:101A2F001220180219B2121E6B0219B212145102AF
:101A3F0019B2121B240219B27BFF7A0579F0122416
:101A4F008A7A2379FD12248A0219B27BFF7A0579EB
:041A5F00E412248ADF
:011A63002260
:102271001226BC7A07798C120A031224D57A0779BF
:1022810096120A03E4FF12244BE4FCFD7BFF7A075C
:1022910079A0120A097F0112244BE4FCFD7BFF7A2D
:1022A1000779AB120A09121F457BFF7A0779B5023C
:0222B1000A0918
:101D6F007BFF7A0779BF12248AE4F530F52FF52E21
:101D7F00F52DF5087BFF7A0779D912248A7A07792E
:101D8F00E2AF08E4FCFDFE120A097BFF7A0779EC4B
:101D9F00AF30AE2FAD2EAC2D120A09AF30AE2FAD36
:101DAF002EAC2D122370E4FCFDFE7BFF7A0779FC2D
:101DBF00120A09AF30AE2FAD2EAC2D1223AC12008C
:101DCF0026E42530F530E4352FF52FE52E3401F5D7
:101DDF002EE4352DF52D0508E508C3942040957B9D
:081DEF00FF7A08790602248A3C
:102523007BFF7A08792312248A1226BCE4FCFDFE81
:102533007BFF7A08793C120A091226277BFF7A0867
:05254300794702248A23
:1024A9008F15AF30AE2FAD2EAC2D85151A1220D653
:1024B900E4FCFDFEE5302515F530EE352FF52FED61
:0C24C900352EF52EEC352DF52D7F002270
:101E6B007BFF7A08796312248A1226277BFF7A0874
:101E7B00798412248A752401752500752600E4F5F2
:0C1E8B0030F52FF52EF52D1212ADAD072D
:061E97007508007509FA50
:0C1E9D00750A0E750BFFD50BFDD50AF77A
:0E1EA900E509150970021508E509450870E6FF
:101EB700ED7BFF70067A0879A780047A0879BF124C
:101EC700248A7BFF7A0879DAAF05E4FCFDFE020A73
:011ED7000901
:10222B00E4FB7A04F9F8AF30AE2FAD2EAC2D1211C2
:10223B009FE47BC8FAF9F8D31212314026AF30AEC7
:10224B002FAD2EAC2D751580122188E5302480F52D
:10225B0030E4352FF52FE4352EF52EE4352DF52D05
:06226B007F80227F0022AB
:102018007524017525007526007BFF7A0879EB1277
:10202800248AE4F530F52FF52EF52D1215D3AD07DA
:062038007508007509FAAD
:0C203E00750A0E750BFFD50BFDD50AF7D7
:0E204A00E509150970021508E509450870E65C
:10205800ED7BFF70067A0879FE80047A09791312FD
:10206800248A7BFF7A0879DAAF05E4FCFDFE020AD0
:01207800095E
:10145100E4F530F52FF52EF52DF509AF30AE2FADB2
:101461002EAC2D122418E4F508122710740025085B
:10147100F582E43400F583EFF00508E508C39480B4
:1014810040E7122734E5302480F530E4352FF52F7D
:10149100E4352EF52EE4352DF52DE4F508E5085457
:1014A1000F6003021559C29975990A3099FDC299C5
:1014B100E50975F080A4AEF07C002508F50BEC3E43
:1014C100F50AC4540FF50CC299C3940AE50C5005F2
:1014D1002430FF80032437FF8F993099FDC299E5AD
:1014E1000A540FF50CC299C3940AE50C5005243037
:1014F100FF80032437FF8F993099FDC299E50AC413
:10150100F854F0C8E50BC4540F48540FF50CC299B8
:10151100C3940AE50C50052430FF80032437FF8F64
:10152100993099FDC299E50B540FF50CC299C394FA
:101531000AE50C50052430FF80032437FF8F9930D2
:1015410099FDC299C29975993A3099FDC299C2998A
:101551007599203099FDC29974002508F582E4340B
:1015610000F583E0750A00F50BE50AC4F854F0C8EC
:10157100E50BC4540F48540FF50CC299C3940AE506
:101581000C50052430FF80032437FF8F993099FDDB
:10159100C299E50B540FF50CC299C3940AE50C509E
:1015A100052430FF80032437FF8F993099FDC299BC
:1015B100C2997599203099FDC2990508E5086480A2
:1015C100600302149E0509E509C394035003021444
:0115D1005CBD
:0115D20022F6
:101B240012247D7A09792B12248A7A097955122490
:101B34008A7A09797F12248A7A0979A91224837B03
:101B4400FF7A0979D312248A7FFF121FB0E5276434
:101B540062606AE527B461051222B380C3E5276099
:101B6400DED3943950D9E4F508FF74272FF8E6FE44
:101B7400600EE50875F00AA42E24D0F5080F80EA5B
:101B84007BFF7A0979D5AF08E4FCFDFE120A09E56A
:101B940008D3942A40087BFF7A0979EA8019E5087A
:101BA4007005122332800AE50814FF12250212265A
:0D1BB400A87BFF7A0979F712248A021B240E
:011BC1002201
:10265400759850438920758DFA758BFA438E40C264
:06266400ABD28EC2AC22D5
:102569008014EF4E601AC2998F993099FDC29974FF
:102579000129F9E43AFA1210FBFF3395E0FE80E2F3
:01258900222F
:0E0C82008F128E118D108C0F8B0C8A0D890E27
:100C9000804DE5137003020EFAB42529AB0CAA0DA2
:100CA000A90E900001121114F51364646038E51365
:100CB00064787003020D90E51364587003020D9080
:100CC0001210FBF513C2998513993099FDC29974DE
:100CD00001250EF50EE4350DF50DAB0CFAA90E123B
:100CE00010FBF51380AC75174075164275150F751E
:100CF0001400E4F518FFFEFDFCAB12AA11A910A820
:100D00000FC3121231700DC2997599303099FDC21E
:100D100099020EECAF17AE16AD15AC14EC4D4E4F5C
:100D20007003020EECAB17AA16A915A814AF12AEE9
:100D300011AD10AC0F12119F8F13E5187004E5135D
:100D40006033751801C299E5132430F5993099FD87
:100D5000C299AF12AE11AD10AC0FAB17AA16A91500
:100D6000A81412119FAC00AD01AE02AF038F128E1A
:100D7000118D108C0FAF17AE16AD15AC14E47B0AB5
:100D8000FAF9F812119F8F178E168D158C14808426
:100D9000AF12AE11AD10AC0F781C121242EF540F0F
:100DA000FF8F13C299E513C3940AE513500524304D
:100DB000FF80032437FF8F993099FDC299AF12AE9F
:100DC00011AD10AC0F7818121242EF540FFF8F13B1
:100DD000C299E513C3940AE51350052430FF80033C
:100DE0002437FF8F993099FDC299AF12AE11AD1023
:100DF000AC0F7814121242EF540FFF8F13C299E513
:100E000013C3940AE51350052430FF80032437FFF1
:100E10008F993099FDC299AF12AE11AD10AC0F7819
:100E200010121242EF540FFF8F13C299E513C394AF
:100E30000AE51350052430FF80032437FF8F9930D3
:100E400099FDC299AF12AE11AD10AC0F780C121211
:100E500042EF540FFF8F13C299E513C3940AE513B1
:100E600050052430FF80032437FF8F993099FDC24D
:100E700099AF12AE11AD10AC0F7808121242EF54B8
:100E80000FFF8F13C299E513C3940AE5135005248D
:100E900030FF80032437FF8F993099FDC299AF123C
:100EA000AE11AD10AC0F7804121242EF540FFF8F49
:100EB00013C299E513C3940AE51350052430FF804B
:100EC000032437FF8F993099FDC299E512540FFF23
:100ED0008F13C299E513C3940AE51350052430FF1C
:100EE00080032437FF8F993099FDC2997401250E34
:0A0EF000F50EE4350DF50D020CCFF0
:010EFA0022D5
:101736007862E6F53D08E6F53C08E6540F7985F74C
:1017460008E6540F19F708E6540F19F708E6540F80
:1017560019F708E6540F19F708E6540F19F708E6C3
:10176600540F19F708E6540F19F7E53DB45912302E
:101776001803021895D2187F111225027F26021827
:1017860092C218E53C12128717B03118033318516C
:1017960035185536185937186238187541187E4D60
:1017A60018874E18904F000018957885E670161821
:1017B600E6701218E6700E18E6700A7F1F122502F0
:1017C6007F21021892E53DC394315003021895E536
:1017D6003DD3943540030218957F0E122502E53D50
:1017E600540FFF1225027F131225027F0F122502C6
:1017F6007F10122502121CE47F0D0218927F171229
:1018060025027885E6700C18E6700818E67004184C
:10181600E660127F0F1225027F10122502121CE4C9
:101826007F0D1225027F1D1225027881E6700F18A2
:10183600E6700B18E6700718E67003FF804E7B0013
:101846007A00797E121CEA7F0D80417F19803D7FE8
:101856001A80397F201225027F2180307F151225BC
:10186600027F221225027F231225027F24801D7FFC
:10187600141225027F1F80147F201225027F1E80EE
:101886000B7F1F1225027F1E80027F1E1225022259
:061CE4007B007A0079820A
:061CEA008B088A09890A3B
:101CF000C219900003121114FF600AD219122502B2
:101D00007F0C122502AB08AA09A90A900002121141
:101D100014FF600C1225027F0B122502D2198016C7
:101D2000301913AB08AA09A90A9000011211146016
:101D300005E4FF122502AB08AA09A90A90000112C6
:101D40001114FF60071225027F0A8010301910ABB2
:101D500008AA09A90A1210FB6005E4FF122502ABCC
:0E1D600008AA09A90A1210FBFF60031225024F
:011D6E002252
:0F217800011F00011D00011E00C121C122C12055
:1025A600759850438920758DFA758BFA538EBFD274
:0C25B6008EC2ABC299C298D2ACD2AF2248
:03002300021ED8E2
:0B1ED800C0E0C0D075D000C000C00703
:101EE300309854751D00C298AF99BF021120020E9D
:101EF300751F00751E00C202C201D201803BBF03E1
:101F03000A300107200204D202802E30020C300175
:101F130009E51EB50702D20080117462251FF8A6D9
:101F230007051FEF621EE51FB4140E751F00751E13
:091F330000C202C2018002C29941
:091F3C00D007D000D0D0D0E03273
:10267F004389015389FC538E7FE4F58AF58CC28D13
:05268F00D28CC2A9225B
:101C6400021A64E493A3F8E493A34003F68001F218
:101C740008DFF48029E493A3F85407240CC8C33381
:101C8400C4540F4420C8834004F456800146F6DF50
:101C9400E4800B0102040810204080902131E47E8E
:101CA400019360BCA3FF543F30E509541FFEE49345
:101CB400A360010ECF54C025E060A840B8E493A30C
:101CC400FAE493A3F8E493A3C8C582C8CAC583CA37
:101CD400F0A3C8C582C8CAC583CADFE9DEE780BEEF
:012187000057
:1010FB00BB010689828A83E0225002E722BBFE02F3
:09110B00E32289828A83E4932225
:10111400BB010CE58229F582E5833AF583E0225090
:1011240006E92582F8E622BBFE06E92582F8E222DA
:0D113400E58229F582E5833AF583E49322F4
:10114100F8BB010DE58229F582E5833AF583E8F0E4
:10115100225006E92582C8F622BBFE05E92582C890
:02116100F22278
:1011630075F008758200EF2FFFEE33FECD33CDCC43
:1011730033CCC58233C5829BED9AEC99E5829840C6
:101183000CF582EE9BFEED9AFDEC99FC0FD5F0D6A3
:10119300E4CEFBE4CDFAE4CCF9A88222B800C1B9CD
:1011A3000059BA002DEC8BF084CFCECDFCE5F0CB0B
:1011B300F97818EF2FFFEE33FEED33FDEC33FCEB44
:1011C30033FB10D703994004EB99FB0FD8E5E4F9FF
:1011D300FA227818EF2FFFEE33FEED33FDEC33FCEC
:1011E300C933C910D7059BE99A4007EC9BFCE99AE0
:1011F300F90FD8E0E4C9FAE4CCFB2275F010EF2F25
:10120300FFEE33FEED33FDCC33CCC833C810D70724
:101213009BEC9AE899400AED9BFDEC9AFCE899F85F
:0E1223000FD5F0DAE4CDFBE4CCFAE4C8F922F2
:10123100EB9FF5F0EA9E42F0E99D42F0E89C45F013
:01124100228A
:10124200E8600FECC313FCED13FDEE13FEEF13FF8A
:03125200D8F122AE
:0C125500E6FC08E6FD08E6FE08E6FF22C5
:0D126100E6FB08E6F908E6FA08E6CBF822FD
:10126E00D083D082E493F608740193F60874029347
:09127E00F608740393F67404737E
:10128700D083D082F8E4937012740193700DA3A3F6
:1012970093F8740193F5828883E47374029368600A
:0612A700EFA3A3A380DF0A
:00000001FF
